{
  "contractName": "DollarRaiders",
  "abi": [
    {
      "constant": true,
      "inputs": [],
      "name": "owner",
      "outputs": [
        {
          "name": "",
          "type": "address"
        }
      ],
      "payable": false,
      "stateMutability": "view",
      "type": "function"
    },
    {
      "constant": true,
      "inputs": [
        {
          "name": "",
          "type": "uint256"
        }
      ],
      "name": "coinIndexToOwner",
      "outputs": [
        {
          "name": "",
          "type": "address"
        }
      ],
      "payable": false,
      "stateMutability": "view",
      "type": "function"
    },
    {
      "constant": true,
      "inputs": [
        {
          "name": "",
          "type": "uint256"
        }
      ],
      "name": "coinIndexToApproved",
      "outputs": [
        {
          "name": "",
          "type": "address"
        }
      ],
      "payable": false,
      "stateMutability": "view",
      "type": "function"
    },
    {
      "constant": false,
      "inputs": [
        {
          "name": "newOwner",
          "type": "address"
        }
      ],
      "name": "transferOwnership",
      "outputs": [],
      "payable": false,
      "stateMutability": "nonpayable",
      "type": "function"
    },
    {
      "inputs": [],
      "payable": false,
      "stateMutability": "nonpayable",
      "type": "constructor"
    },
    {
      "anonymous": false,
      "inputs": [
        {
          "indexed": false,
          "name": "coinNumber",
          "type": "uint16"
        }
      ],
      "name": "CoinCreate",
      "type": "event"
    },
    {
      "anonymous": false,
      "inputs": [
        {
          "indexed": false,
          "name": "from",
          "type": "address"
        },
        {
          "indexed": false,
          "name": "to",
          "type": "address"
        },
        {
          "indexed": false,
          "name": "tokenId",
          "type": "uint256"
        }
      ],
      "name": "Transfer",
      "type": "event"
    },
    {
      "anonymous": false,
      "inputs": [
        {
          "indexed": false,
          "name": "owner",
          "type": "address"
        },
        {
          "indexed": false,
          "name": "approved",
          "type": "address"
        },
        {
          "indexed": false,
          "name": "tokenId",
          "type": "uint256"
        }
      ],
      "name": "Approval",
      "type": "event"
    },
    {
      "constant": true,
      "inputs": [],
      "name": "name",
      "outputs": [
        {
          "name": "_name",
          "type": "string"
        }
      ],
      "payable": false,
      "stateMutability": "pure",
      "type": "function"
    },
    {
      "constant": true,
      "inputs": [],
      "name": "symbol",
      "outputs": [
        {
          "name": "_symbol",
          "type": "string"
        }
      ],
      "payable": false,
      "stateMutability": "pure",
      "type": "function"
    },
    {
      "constant": false,
      "inputs": [
        {
          "name": "_total",
          "type": "uint16"
        }
      ],
      "name": "createCoins",
      "outputs": [
        {
          "name": "",
          "type": "uint256"
        }
      ],
      "payable": false,
      "stateMutability": "nonpayable",
      "type": "function"
    },
    {
      "constant": false,
      "inputs": [],
      "name": "resetCoins",
      "outputs": [],
      "payable": false,
      "stateMutability": "nonpayable",
      "type": "function"
    },
    {
      "constant": true,
      "inputs": [
        {
          "name": "_i",
          "type": "uint64"
        }
      ],
      "name": "getTokenInfo",
      "outputs": [
        {
          "name": "coinNumber",
          "type": "uint16"
        },
        {
          "name": "isBuy",
          "type": "uint16"
        },
        {
          "name": "buyTime",
          "type": "uint64"
        },
        {
          "name": "owner",
          "type": "address"
        }
      ],
      "payable": false,
      "stateMutability": "view",
      "type": "function"
    },
    {
      "constant": false,
      "inputs": [
        {
          "name": "num",
          "type": "uint16"
        }
      ],
      "name": "buyToken",
      "outputs": [],
      "payable": false,
      "stateMutability": "nonpayable",
      "type": "function"
    },
    {
      "constant": true,
      "inputs": [],
      "name": "totalSupply",
      "outputs": [
        {
          "name": "total",
          "type": "uint256"
        }
      ],
      "payable": false,
      "stateMutability": "view",
      "type": "function"
    },
    {
      "constant": true,
      "inputs": [
        {
          "name": "_owner",
          "type": "address"
        }
      ],
      "name": "balanceOf",
      "outputs": [
        {
          "name": "balance",
          "type": "uint256"
        }
      ],
      "payable": false,
      "stateMutability": "view",
      "type": "function"
    },
    {
      "constant": true,
      "inputs": [
        {
          "name": "_tokenId",
          "type": "uint256"
        }
      ],
      "name": "ownerOf",
      "outputs": [
        {
          "name": "owner",
          "type": "address"
        }
      ],
      "payable": false,
      "stateMutability": "view",
      "type": "function"
    },
    {
      "constant": false,
      "inputs": [
        {
          "name": "_to",
          "type": "address"
        },
        {
          "name": "_tokenId",
          "type": "uint256"
        }
      ],
      "name": "approve",
      "outputs": [],
      "payable": false,
      "stateMutability": "nonpayable",
      "type": "function"
    },
    {
      "constant": false,
      "inputs": [
        {
          "name": "_to",
          "type": "address"
        },
        {
          "name": "_tokenId",
          "type": "uint256"
        }
      ],
      "name": "transfer",
      "outputs": [],
      "payable": false,
      "stateMutability": "nonpayable",
      "type": "function"
    },
    {
      "constant": false,
      "inputs": [
        {
          "name": "_from",
          "type": "address"
        },
        {
          "name": "_to",
          "type": "address"
        },
        {
          "name": "_tokenId",
          "type": "uint256"
        }
      ],
      "name": "transferFrom",
      "outputs": [],
      "payable": false,
      "stateMutability": "nonpayable",
      "type": "function"
    },
    {
      "constant": false,
      "inputs": [
        {
          "name": "_total",
          "type": "uint16"
        }
      ],
      "name": "_createCoins",
      "outputs": [
        {
          "name": "",
          "type": "uint256"
        }
      ],
      "payable": false,
      "stateMutability": "nonpayable",
      "type": "function"
    },
    {
      "constant": true,
      "inputs": [],
      "name": "SayHi",
      "outputs": [
        {
          "name": "",
          "type": "string"
        }
      ],
      "payable": false,
      "stateMutability": "pure",
      "type": "function"
    },
    {
      "constant": true,
      "inputs": [],
      "name": "SayHi2",
      "outputs": [
        {
          "name": "",
          "type": "string"
        }
      ],
      "payable": false,
      "stateMutability": "pure",
      "type": "function"
    }
  ],
  "bytecode": "0x6060604052341561000f57600080fd5b336000806101000a81548173ffffffffffffffffffffffffffffffffffffffff021916908373ffffffffffffffffffffffffffffffffffffffff1602179055506000600160006101000a81548173ffffffffffffffffffffffffffffffffffffffff021916908373ffffffffffffffffffffffffffffffffffffffff1602179055506000600160146101000a81548161ffff021916908361ffff16021790555061158e806100be6000396000f300606060405260043610610107576000357c0100000000000000000000000000000000000000000000000000000000900463ffffffff16806304dd9f471461010c57806306fdde0314610121578063095ea7b3146101af57806312fb1520146101f157806318160ddd1461021857806323b872dd146102415780636352211e146102a25780636ce0c9291461030557806370a08231146103935780638da5cb5b146103e057806395d89b41146104355780639c6dd5d4146104c3578063a9059cbb14610551578063aa37585414610593578063ac590a93146105f6578063b0c683ec14610659578063e11f7c1d14610694578063f2fde38b1461073a578063fbed745914610773575b600080fd5b341561011757600080fd5b61011f6107ae565b005b341561012c57600080fd5b6101346108ef565b6040518080602001828103825283818151815260200191508051906020019080838360005b83811015610174578082015181840152602081019050610159565b50505050905090810190601f1680156101a15780820380516001836020036101000a031916815260200191505b509250505060405180910390f35b34156101ba57600080fd5b6101ef600480803573ffffffffffffffffffffffffffffffffffffffff16906020019091908035906020019091905050610932565b005b34156101fc57600080fd5b610216600480803561ffff169060200190919050506109f4565b005b341561022357600080fd5b61022b610a63565b6040518082815260200191505060405180910390f35b341561024c57600080fd5b6102a0600480803573ffffffffffffffffffffffffffffffffffffffff1690602001909190803573ffffffffffffffffffffffffffffffffffffffff16906020019091908035906020019091905050610a70565b005b34156102ad57600080fd5b6102c36004808035906020019091905050610b21565b604051808273ffffffffffffffffffffffffffffffffffffffff1673ffffffffffffffffffffffffffffffffffffffff16815260200191505060405180910390f35b341561031057600080fd5b610318610b9a565b6040518080602001828103825283818151815260200191508051906020019080838360005b8381101561035857808201518184015260208101905061033d565b50505050905090810190601f1680156103855780820380516001836020036101000a031916815260200191505b509250505060405180910390f35b341561039e57600080fd5b6103ca600480803573ffffffffffffffffffffffffffffffffffffffff16906020019091905050610bdd565b6040518082815260200191505060405180910390f35b34156103eb57600080fd5b6103f3610c26565b604051808273ffffffffffffffffffffffffffffffffffffffff1673ffffffffffffffffffffffffffffffffffffffff16815260200191505060405180910390f35b341561044057600080fd5b610448610c4b565b6040518080602001828103825283818151815260200191508051906020019080838360005b8381101561048857808201518184015260208101905061046d565b50505050905090810190601f1680156104b55780820380516001836020036101000a031916815260200191505b509250505060405180910390f35b34156104ce57600080fd5b6104d6610c8e565b6040518080602001828103825283818151815260200191508051906020019080838360005b838110156105165780820151818401526020810190506104fb565b50505050905090810190601f1680156105435780820380516001836020036101000a031916815260200191505b509250505060405180910390f35b341561055c57600080fd5b610591600480803573ffffffffffffffffffffffffffffffffffffffff16906020019091908035906020019091905050610cd1565b005b341561059e57600080fd5b6105b46004808035906020019091905050610d6c565b604051808273ffffffffffffffffffffffffffffffffffffffff1673ffffffffffffffffffffffffffffffffffffffff16815260200191505060405180910390f35b341561060157600080fd5b6106176004808035906020019091905050610d9f565b604051808273ffffffffffffffffffffffffffffffffffffffff1673ffffffffffffffffffffffffffffffffffffffff16815260200191505060405180910390f35b341561066457600080fd5b61067e600480803561ffff16906020019091905050610dd2565b6040518082815260200191505060405180910390f35b341561069f57600080fd5b6106bf600480803567ffffffffffffffff16906020019091905050610de4565b604051808561ffff1661ffff1681526020018461ffff1661ffff1681526020018367ffffffffffffffff1667ffffffffffffffff1681526020018273ffffffffffffffffffffffffffffffffffffffff1673ffffffffffffffffffffffffffffffffffffffff16815260200194505050505060405180910390f35b341561074557600080fd5b610771600480803573ffffffffffffffffffffffffffffffffffffffff16906020019091905050610f25565b005b341561077e57600080fd5b610798600480803561ffff16906020019091905050610ffa565b6040518082815260200191505060405180910390f35b60008060008092505b600160149054906101000a900461ffff1661ffff168310156108ea576001830191506003600083815260200190815260200160002060009054906101000a900473ffffffffffffffffffffffffffffffffffffffff1690506000600460008373ffffffffffffffffffffffffffffffffffffffff1673ffffffffffffffffffffffffffffffffffffffff1681526020019081526020016000208190555060006003600084815260200190815260200160002060006101000a81548173ffffffffffffffffffffffffffffffffffffffff021916908373ffffffffffffffffffffffffffffffffffffffff1602179055506005600083815260200190815260200160002060006101000a81549073ffffffffffffffffffffffffffffffffffffffff021916905582806001019350506107b7565b505050565b6108f76114ab565b6040805190810160405280600d81526020017f446f6c6c61725261696465727300000000000000000000000000000000000000815250905090565b61093c33826111b2565b151561094757600080fd5b610951818361121e565b7f8c5be1e5ebec7d5bd14f71427d1e84f3dd0314c0f7b2291e5b200ac8c7c3b925338383604051808473ffffffffffffffffffffffffffffffffffffffff1673ffffffffffffffffffffffffffffffffffffffff1681526020018373ffffffffffffffffffffffffffffffffffffffff1673ffffffffffffffffffffffffffffffffffffffff168152602001828152602001935050505060405180910390a15050565b60008161ffff1610158015610a215750600160149054906101000a900461ffff1661ffff168161ffff1611155b1515610a2c57600080fd5b610a60600160009054906101000a900473ffffffffffffffffffffffffffffffffffffffff16336001840361ffff16611274565b50565b6000600280549050905090565b600073ffffffffffffffffffffffffffffffffffffffff168273ffffffffffffffffffffffffffffffffffffffff1614151515610aac57600080fd5b3073ffffffffffffffffffffffffffffffffffffffff168273ffffffffffffffffffffffffffffffffffffffff1614151515610ae757600080fd5b610af1338261143f565b1515610afc57600080fd5b610b0683826111b2565b1515610b1157600080fd5b610b1c838383611274565b505050565b60006003600083815260200190815260200160002060009054906101000a900473ffffffffffffffffffffffffffffffffffffffff169050600073ffffffffffffffffffffffffffffffffffffffff168173ffffffffffffffffffffffffffffffffffffffff1614151515610b9557600080fd5b919050565b610ba26114ab565b6040805190810160405280601681526020017f48697e32204d7920446f6c6c6172526169646572732100000000000000000000815250905090565b6000600460008373ffffffffffffffffffffffffffffffffffffffff1673ffffffffffffffffffffffffffffffffffffffff168152602001908152602001600020549050919050565b6000809054906101000a900473ffffffffffffffffffffffffffffffffffffffff1681565b610c536114ab565b6040805190810160405280600381526020017f4452430000000000000000000000000000000000000000000000000000000000815250905090565b610c966114ab565b6040805190810160405280601281526020017f48697e20446f6c6c617252616964657273210000000000000000000000000000815250905090565b600073ffffffffffffffffffffffffffffffffffffffff168273ffffffffffffffffffffffffffffffffffffffff1614151515610d0d57600080fd5b3073ffffffffffffffffffffffffffffffffffffffff168273ffffffffffffffffffffffffffffffffffffffff1614151515610d4857600080fd5b610d5233826111b2565b1515610d5d57600080fd5b610d68338383611274565b5050565b60036020528060005260406000206000915054906101000a900473ffffffffffffffffffffffffffffffffffffffff1681565b60056020528060005260406000206000915054906101000a900473ffffffffffffffffffffffffffffffffffffffff1681565b6000610ddd82610ffa565b9050919050565b600080600080600060028667ffffffffffffffff16815481101515610e0557fe5b906000526020600020900190508060000160009054906101000a900461ffff1694508060000160029054906101000a900467ffffffffffffffff169250600360008767ffffffffffffffff16815260200190815260200160002060009054906101000a900473ffffffffffffffffffffffffffffffffffffffff169150600073ffffffffffffffffffffffffffffffffffffffff168273ffffffffffffffffffffffffffffffffffffffff161480610f0a5750600160009054906101000a900473ffffffffffffffffffffffffffffffffffffffff1673ffffffffffffffffffffffffffffffffffffffff168273ffffffffffffffffffffffffffffffffffffffff16145b15610f185760009350610f1d565b600193505b509193509193565b6000809054906101000a900473ffffffffffffffffffffffffffffffffffffffff1673ffffffffffffffffffffffffffffffffffffffff163373ffffffffffffffffffffffffffffffffffffffff16141515610f8057600080fd5b600073ffffffffffffffffffffffffffffffffffffffff168173ffffffffffffffffffffffffffffffffffffffff16141515610ff757806000806101000a81548173ffffffffffffffffffffffffffffffffffffffff021916908373ffffffffffffffffffffffffffffffffffffffff1602179055505b50565b6000806110056114bf565b600060198561ffff1614151561101a57600080fd5b84600160146101000a81548161ffff021916908361ffff160217905550600092505b600160149054906101000a900461ffff1661ffff168361ffff1610156111935760408051908101604052806001850161ffff1681526020014267ffffffffffffffff1681525091506002805480600101828161109891906114e7565b9160005260206000209001600084909190915060008201518160000160006101000a81548161ffff021916908361ffff16021790555060208201518160000160026101000a81548167ffffffffffffffff021916908367ffffffffffffffff160217905550505090508063ffffffff168114151561111557600080fd5b7fff82f9e46c57efebe9cae7565858d415b1c2f4b6da4baccd6db58f514b4d76fc8260000151604051808261ffff1661ffff16815260200191505060405180910390a16111866000600160009054906101000a900473ffffffffffffffffffffffffffffffffffffffff1683611274565b828060010193505061103c565b600160149054906101000a900461ffff1661ffff169350505050919050565b60008273ffffffffffffffffffffffffffffffffffffffff166003600084815260200190815260200160002060009054906101000a900473ffffffffffffffffffffffffffffffffffffffff1673ffffffffffffffffffffffffffffffffffffffff1614905092915050565b806005600084815260200190815260200160002060006101000a81548173ffffffffffffffffffffffffffffffffffffffff021916908373ffffffffffffffffffffffffffffffffffffffff1602179055505050565b600460008373ffffffffffffffffffffffffffffffffffffffff1673ffffffffffffffffffffffffffffffffffffffff16815260200190815260200160002060008154809291906001019190505550816003600083815260200190815260200160002060006101000a81548173ffffffffffffffffffffffffffffffffffffffff021916908373ffffffffffffffffffffffffffffffffffffffff160217905550600460008473ffffffffffffffffffffffffffffffffffffffff1673ffffffffffffffffffffffffffffffffffffffff16815260200190815260200160002060008154809291906001900391905055506005600082815260200190815260200160002060006101000a81549073ffffffffffffffffffffffffffffffffffffffff02191690557fddf252ad1be2c89b69c2b068fc378daa952ba7f163c4a11628f55a4df523b3ef838383604051808473ffffffffffffffffffffffffffffffffffffffff1673ffffffffffffffffffffffffffffffffffffffff1681526020018373ffffffffffffffffffffffffffffffffffffffff1673ffffffffffffffffffffffffffffffffffffffff168152602001828152602001935050505060405180910390a1505050565b60008273ffffffffffffffffffffffffffffffffffffffff166005600084815260200190815260200160002060009054906101000a900473ffffffffffffffffffffffffffffffffffffffff1673ffffffffffffffffffffffffffffffffffffffff1614905092915050565b602060405190810160405280600081525090565b6040805190810160405280600061ffff168152602001600067ffffffffffffffff1681525090565b81548183558181151161150e5781836000526020600020918201910161150d9190611513565b5b505050565b61155f91905b8082111561155b57600080820160006101000a81549061ffff02191690556000820160026101000a81549067ffffffffffffffff021916905550600101611519565b5090565b905600a165627a7a72305820297d10fccdb9a24d2840b2cbfd9b7521a8ea8845668bb80836d75e9ccab1d0980029",
  "source": "pragma solidity ^0.4.18;\n\nimport \"./Ownable.sol\";\nimport \"./ERC721.sol\";\n\ncontract DollarRaiders is Ownable, ERC721 {\n\n    /*** 数据 ***/\n    address createAddress;\t\t// 代币初始创建时的默认地址\n    uint16 currentCoinTotal;\t// 当前代币总数\n    \n    // 一个代币的数据结构\n\tstruct CoinNumber {\n\t\tuint16 coinNumber;\n\t\tuint64 buyTime;\n\t}\n\t\t\n\t// 保存所有代币数据。索引基于0，也是每个代币的token ID\n\tCoinNumber[] coinNumbers;\n\t\n\tmapping (uint256 => address) public coinIndexToOwner;\t\t// 代币与拥有者之间的映射\n\tmapping (address => uint256) ownershipTokenCount;\t\t\t// 一个人所拥有的代币的总数映射\n\tmapping (uint256 => address) public coinIndexToApproved;\t// 待转让的代币与其拥有者的映射\n\t\n\t/*** 事件 ***/\n\t\n\t// 每当有新的代币出现时，就会触发该事件\n\tevent CoinCreate(uint16 coinNumber);\n\t\n\t// 代币被转让时触发该事件，包括新代币创建\n\tevent Transfer(address from, address to, uint256 tokenId);\n\t\n\t/*** 公有方法 ***/\n\t\n\t// 定义项目名称\n\tfunction name() public pure returns (string _name){\n\t\treturn \"DollarRaiders\";\n\t}\n\t\n\t// 定义代币符号\n\tfunction symbol() public pure returns (string _symbol){\n\t\treturn \"DRC\";\n\t}\n\t\n\t// 构造函数，创建了DollarRaiders主合约实例\n\tfunction DollarRaiders() public{\n\t\tcreateAddress = address(0);\n\t\tcurrentCoinTotal = 0;\n\t}\n\t\n\t// 创建指定数量的代币，并设置地址为初始地址\n\tfunction createCoins(uint16 _total) public returns (uint) {\n\t\treturn _createCoins(_total);\n\t}\n\t\n\t// 重置代币状态，重新开始游戏\n\tfunction resetCoins() public {\n\t\tuint256 tokenIndex;\n\t\tuint256 _tokenId;\n        for (tokenIndex = 0; tokenIndex < currentCoinTotal; tokenIndex ++) {\n\t        _tokenId = tokenIndex + 1;\n\t        address _ower = coinIndexToOwner[_tokenId];\n\t\t\townershipTokenCount[_ower] = 0;\n\t\t\tcoinIndexToOwner[_tokenId] = address(0);\n            delete coinIndexToApproved[_tokenId];\n        }\n\t}\n\t\n\t// 获取一个代币的详细信息\n\tfunction getTokenInfo(uint64 _i) external view returns (\n\t\t\t\t\t\t\t\t\t\t\t\t\tuint16 coinNumber, \n\t\t\t\t\t\t\t\t\t\t\t\t\tuint16 isBuy, \n\t\t\t\t\t\t\t\t\t\t\t\t\tuint64 buyTime,\n\t\t\t\t\t\t\t\t\t\t\t\t\taddress owner) {\n        CoinNumber storage coin = coinNumbers[_i];\n        coinNumber = coin.coinNumber;\n        buyTime = coin.buyTime;\n        owner = coinIndexToOwner[_i];\n        if(owner == address(0) || owner == createAddress){\n\t        isBuy = 0;\n        }else{\n\t        isBuy = 1;\n        }\n    }\n    \n    // 购买代币\n\tfunction buyToken(uint16 num) public {\n\t\trequire(num >= 0 && num <= currentCoinTotal);\n\t\t\n        _transfer(createAddress, msg.sender, num-1);\n\t}\n\t\n\t/*** 实现ERC721方法 ***/\n\t\n\t// 返回目前所有代币总数\n\tfunction totalSupply() public view returns (uint256 total) {\n        return coinNumbers.length;\n    }\n    \n    // 返回拥有者的代币余额\n\tfunction balanceOf(address _owner) public view returns (uint256 balance) {\n\t\treturn ownershipTokenCount[_owner];\n\t}\n\t\n\t// 返回代币拥有者的地址\n\tfunction ownerOf(uint256 _tokenId) public view returns (address owner) {\n\t\towner = coinIndexToOwner[_tokenId];\n\n        require(owner != address(0));\n\t}\n\t\n\t// 允许某人对自己的代币进行转让操作（transferFrom）\n\tfunction approve(address _to, uint256 _tokenId) public {\n\t\t// 只有代币的拥有者，才有权授权别人转让自己的代币\n        require(_owns(msg.sender, _tokenId));\n        \n        // 注册一个转让授权（如果已经存在，则替换之前的）\n        _approve(_tokenId, _to);\n\n        // Emit approval event.\n        Approval(msg.sender, _to, _tokenId);\n\t}\n\t\n\t// 将代币转让给指定的人\n\tfunction transfer(address _to, uint256 _tokenId) external {\n\t\t// 确保指定地址是有效的\n        require(_to != address(0));\n        \n        // 不允许转让给本合约\n        require(_to != address(this));\n\n        // 只能转让自己的代币\n        require(_owns(msg.sender, _tokenId));\n\n        // 执行转让操作\n        _transfer(msg.sender, _to, _tokenId);\n\t}\n\t\n\t// 进行两个人之间的代币转让操作\n\tfunction transferFrom(address _from, address _to, uint256 _tokenId) public{\n\t\t// 确保指定地址是有效的\n        require(_to != address(0));\n        \n        // 不允许转让给本合约\n        require(_to != address(this));\n        \n        // 检查转让授权和所有权都是有效的\n        require(_approvedFor(msg.sender, _tokenId));\n        require(_owns(_from, _tokenId));\n\n        // 执行转让操作\n        _transfer(_from, _to, _tokenId);\n\t}\n\t\n\t/*** 内部方法 ***/\n\t\n\t// 创建指定数量的代币，并设置地址为初始地址\n\tfunction _createCoins(uint16 _total) public returns (uint) {\n        require(_total == 25);\n        \n\t\tcurrentCoinTotal = _total;\n\t\tuint16 tokenIndex;\n        for (tokenIndex = 0; tokenIndex < currentCoinTotal; tokenIndex ++) {\n            CoinNumber memory _token = CoinNumber({\n\t            coinNumber: tokenIndex + 1,\n\t            buyTime: uint64(now)\n            });\n            \n            uint256 newTokenId = coinNumbers.push(_token);\n\n\t        // 确保新id不过超过40多亿的上限（虽然可能性非常低）\n\t        require(newTokenId == uint256(uint32(newTokenId)));\n\t\n\t        // 触发代币创建事件\n\t\t\tCoinCreate(_token.coinNumber);\n\t\n\t        // 按照ERC721协议，将新代币转让给初始地址\n\t\t\t_transfer(0, createAddress, newTokenId);\n        }\n\n        return currentCoinTotal;\n    }\n    \n\t// 判断代币是否归指定用户所有\n\tfunction _owns(address _claimant, uint256 _tokenId) internal view returns (bool) {\n        return coinIndexToOwner[_tokenId] == _claimant;\n    }\n\t\n\t// 允许指定用户可以转让自己的代币\n\tfunction _approve(uint256 _tokenId, address _approved) internal\t{\n        coinIndexToApproved[_tokenId] = _approved;\n    }\t\n\t\n\t// 判断代币是否可以被指定用户进行转让\n\tfunction _approvedFor(address _claimant, uint256 _tokenId) internal view returns (bool) {\n        return coinIndexToApproved[_tokenId] == _claimant;\n    }\n\t\n\t// 转让代币的所有权\n\tfunction _transfer(address _from, address _to, uint256 _tokenId) internal {\n        // 上限是2^32（即：4294967296，40多亿）\n        ownershipTokenCount[_to] ++;\n        \n        // 所有权转移\n        coinIndexToOwner[_tokenId] = _to;\n        \n        // 原拥有者的地址必须有效\n        //if (_from != address(0)) {\n\t        // 原拥有者token总数减量\n            ownershipTokenCount[_from]--;\n            \n            // 清理掉之前对该代币的转让授权\n            delete coinIndexToApproved[_tokenId];\n        //}\n        \n        // 触发一个转让事件\n        Transfer(_from, _to, _tokenId);\n    }\n    \n    /// 测试函数\n    function SayHi() pure public returns (string) {\n\t\treturn \"Hi~ DollarRaiders!\";\n\t}\n\t\n\tfunction SayHi2() pure public returns (string) {\n\t\treturn \"Hi~2 My DollarRaiders!\";\n\t}\n}\n",
  "sourcePath": "/Users/guojh/work/guojh/blockchain/project/dollar_raiders/src/dollar-raiders/contracts/DollarRaiders.sol",
  "compiler": {
    "name": "solc",
    "version": "0.4.19+commit.c4cbbb05.Emscripten.clang"
  },
  "schemaVersion": "2.0.0",
  "updatedAt": "2018-04-15T01:50:46.055Z"
}